{
  "_format": "hh-sol-artifact-1",
  "contractName": "DappBnB",
  "sourceName": "contracts/DappBnB.sol",
  "abi": [
    {
      "inputs": [
        {
          "internalType": "uint256",
          "name": "aid",
          "type": "uint256"
        },
        {
          "internalType": "string",
          "name": "reviewText",
          "type": "string"
        }
      ],
      "name": "addReview",
      "outputs": [],
      "stateMutability": "nonpayable",
      "type": "function"
    },
    {
      "inputs": [
        {
          "internalType": "uint256",
          "name": "aid",
          "type": "uint256"
        },
        {
          "internalType": "uint256[]",
          "name": "dates",
          "type": "uint256[]"
        }
      ],
      "name": "bookApartment",
      "outputs": [],
      "stateMutability": "payable",
      "type": "function"
    },
    {
      "inputs": [
        {
          "internalType": "uint256",
          "name": "aid",
          "type": "uint256"
        },
        {
          "internalType": "uint256",
          "name": "bookingId",
          "type": "uint256"
        }
      ],
      "name": "checkInApartment",
      "outputs": [],
      "stateMutability": "nonpayable",
      "type": "function"
    },
    {
      "inputs": [
        {
          "internalType": "uint256",
          "name": "aid",
          "type": "uint256"
        },
        {
          "internalType": "uint256",
          "name": "bookingId",
          "type": "uint256"
        }
      ],
      "name": "claimFunds",
      "outputs": [],
      "stateMutability": "nonpayable",
      "type": "function"
    },
    {
      "inputs": [
        {
          "internalType": "string",
          "name": "name",
          "type": "string"
        },
        {
          "internalType": "string",
          "name": "description",
          "type": "string"
        },
        {
          "internalType": "string",
          "name": "location",
          "type": "string"
        },
        {
          "internalType": "string[]",
          "name": "imageHashes",
          "type": "string[]"
        },
        {
          "internalType": "uint256",
          "name": "rooms",
          "type": "uint256"
        },
        {
          "internalType": "uint256",
          "name": "price",
          "type": "uint256"
        },
        {
          "internalType": "uint256",
          "name": "taxPercent",
          "type": "uint256"
        },
        {
          "internalType": "uint256",
          "name": "securityFee",
          "type": "uint256"
        }
      ],
      "name": "createApartment",
      "outputs": [],
      "stateMutability": "nonpayable",
      "type": "function"
    },
    {
      "inputs": [
        {
          "internalType": "uint256",
          "name": "id",
          "type": "uint256"
        }
      ],
      "name": "deleteApartment",
      "outputs": [],
      "stateMutability": "nonpayable",
      "type": "function"
    },
    {
      "inputs": [],
      "name": "eventHub",
      "outputs": [
        {
          "internalType": "contract EventHub",
          "name": "",
          "type": "address"
        }
      ],
      "stateMutability": "view",
      "type": "function"
    },
    {
      "inputs": [],
      "name": "getAdminSettings",
      "outputs": [
        {
          "components": [
            {
              "internalType": "uint256",
              "name": "pageSize",
              "type": "uint256"
            },
            {
              "internalType": "uint256",
              "name": "maxImages",
              "type": "uint256"
            }
          ],
          "internalType": "struct AdminManagement.AdminSettings",
          "name": "",
          "type": "tuple"
        }
      ],
      "stateMutability": "view",
      "type": "function"
    },
    {
      "inputs": [
        {
          "internalType": "uint256",
          "name": "startIndex",
          "type": "uint256"
        },
        {
          "internalType": "uint256",
          "name": "count",
          "type": "uint256"
        }
      ],
      "name": "getApartments",
      "outputs": [
        {
          "components": [
            {
              "internalType": "uint256",
              "name": "id",
              "type": "uint256"
            },
            {
              "internalType": "string",
              "name": "name",
              "type": "string"
            },
            {
              "internalType": "string",
              "name": "description",
              "type": "string"
            },
            {
              "internalType": "string",
              "name": "location",
              "type": "string"
            },
            {
              "internalType": "string[]",
              "name": "imageHashes",
              "type": "string[]"
            },
            {
              "internalType": "uint256",
              "name": "rooms",
              "type": "uint256"
            },
            {
              "internalType": "uint256",
              "name": "price",
              "type": "uint256"
            },
            {
              "internalType": "uint256",
              "name": "taxPercent",
              "type": "uint256"
            },
            {
              "internalType": "uint256",
              "name": "securityFee",
              "type": "uint256"
            },
            {
              "internalType": "address",
              "name": "owner",
              "type": "address"
            },
            {
              "internalType": "bool",
              "name": "booked",
              "type": "bool"
            },
            {
              "internalType": "bool",
              "name": "deleted",
              "type": "bool"
            },
            {
              "internalType": "uint256",
              "name": "timestamp",
              "type": "uint256"
            }
          ],
          "internalType": "struct PropertyLibrary.ApartmentStruct[]",
          "name": "",
          "type": "tuple[]"
        }
      ],
      "stateMutability": "view",
      "type": "function"
    },
    {
      "inputs": [
        {
          "internalType": "uint256",
          "name": "aid",
          "type": "uint256"
        },
        {
          "internalType": "uint256",
          "name": "bookingId",
          "type": "uint256"
        }
      ],
      "name": "getBooking",
      "outputs": [
        {
          "components": [
            {
              "internalType": "uint256",
              "name": "id",
              "type": "uint256"
            },
            {
              "internalType": "uint256",
              "name": "aid",
              "type": "uint256"
            },
            {
              "internalType": "address",
              "name": "tenant",
              "type": "address"
            },
            {
              "internalType": "uint256",
              "name": "date",
              "type": "uint256"
            },
            {
              "internalType": "uint256",
              "name": "price",
              "type": "uint256"
            },
            {
              "internalType": "bool",
              "name": "checked",
              "type": "bool"
            },
            {
              "internalType": "bool",
              "name": "cancelled",
              "type": "bool"
            }
          ],
          "internalType": "struct PropertyLibrary.BookingStruct",
          "name": "",
          "type": "tuple"
        }
      ],
      "stateMutability": "view",
      "type": "function"
    },
    {
      "inputs": [
        {
          "internalType": "uint256",
          "name": "aid",
          "type": "uint256"
        },
        {
          "internalType": "uint256",
          "name": "startIndex",
          "type": "uint256"
        },
        {
          "internalType": "uint256",
          "name": "count",
          "type": "uint256"
        }
      ],
      "name": "getBookings",
      "outputs": [
        {
          "components": [
            {
              "internalType": "uint256",
              "name": "id",
              "type": "uint256"
            },
            {
              "internalType": "uint256",
              "name": "aid",
              "type": "uint256"
            },
            {
              "internalType": "address",
              "name": "tenant",
              "type": "address"
            },
            {
              "internalType": "uint256",
              "name": "date",
              "type": "uint256"
            },
            {
              "internalType": "uint256",
              "name": "price",
              "type": "uint256"
            },
            {
              "internalType": "bool",
              "name": "checked",
              "type": "bool"
            },
            {
              "internalType": "bool",
              "name": "cancelled",
              "type": "bool"
            }
          ],
          "internalType": "struct PropertyLibrary.BookingStruct[]",
          "name": "",
          "type": "tuple[]"
        }
      ],
      "stateMutability": "view",
      "type": "function"
    },
    {
      "inputs": [
        {
          "internalType": "uint256",
          "name": "aid",
          "type": "uint256"
        }
      ],
      "name": "getQualifiedReviewers",
      "outputs": [
        {
          "internalType": "address[]",
          "name": "",
          "type": "address[]"
        }
      ],
      "stateMutability": "view",
      "type": "function"
    },
    {
      "inputs": [
        {
          "internalType": "uint256",
          "name": "aid",
          "type": "uint256"
        }
      ],
      "name": "getReviews",
      "outputs": [
        {
          "components": [
            {
              "internalType": "uint256",
              "name": "id",
              "type": "uint256"
            },
            {
              "internalType": "uint256",
              "name": "aid",
              "type": "uint256"
            },
            {
              "internalType": "string",
              "name": "reviewText",
              "type": "string"
            },
            {
              "internalType": "uint256",
              "name": "timestamp",
              "type": "uint256"
            },
            {
              "internalType": "address",
              "name": "owner",
              "type": "address"
            }
          ],
          "internalType": "struct PropertyLibrary.ReviewStruct[]",
          "name": "",
          "type": "tuple[]"
        }
      ],
      "stateMutability": "view",
      "type": "function"
    },
    {
      "inputs": [
        {
          "internalType": "uint256",
          "name": "aid",
          "type": "uint256"
        }
      ],
      "name": "getUnavailableDates",
      "outputs": [
        {
          "internalType": "uint256[]",
          "name": "",
          "type": "uint256[]"
        }
      ],
      "stateMutability": "view",
      "type": "function"
    },
    {
      "inputs": [
        {
          "internalType": "address",
          "name": "_propertyManagement",
          "type": "address"
        },
        {
          "internalType": "address",
          "name": "_reviewManagement",
          "type": "address"
        },
        {
          "internalType": "address",
          "name": "_eventHub",
          "type": "address"
        },
        {
          "internalType": "address",
          "name": "_adminManagement",
          "type": "address"
        }
      ],
      "name": "initialize",
      "outputs": [],
      "stateMutability": "payable",
      "type": "function"
    },
    {
      "inputs": [
        {
          "internalType": "address",
          "name": "_user",
          "type": "address"
        }
      ],
      "name": "isAdmin",
      "outputs": [
        {
          "internalType": "bool",
          "name": "",
          "type": "bool"
        }
      ],
      "stateMutability": "view",
      "type": "function"
    },
    {
      "inputs": [],
      "name": "propertyManagement",
      "outputs": [
        {
          "internalType": "contract PropertyManagement",
          "name": "",
          "type": "address"
        }
      ],
      "stateMutability": "view",
      "type": "function"
    },
    {
      "inputs": [
        {
          "internalType": "uint256",
          "name": "aid",
          "type": "uint256"
        },
        {
          "internalType": "uint256",
          "name": "bookingId",
          "type": "uint256"
        }
      ],
      "name": "refundBooking",
      "outputs": [],
      "stateMutability": "nonpayable",
      "type": "function"
    },
    {
      "inputs": [],
      "name": "reviewManagement",
      "outputs": [
        {
          "internalType": "contract ReviewManagement",
          "name": "",
          "type": "address"
        }
      ],
      "stateMutability": "view",
      "type": "function"
    },
    {
      "inputs": [
        {
          "internalType": "uint256",
          "name": "_pageSize",
          "type": "uint256"
        },
        {
          "internalType": "uint256",
          "name": "_maxImages",
          "type": "uint256"
        }
      ],
      "name": "setAdminSettings",
      "outputs": [],
      "stateMutability": "nonpayable",
      "type": "function"
    },
    {
      "inputs": [
        {
          "internalType": "uint256",
          "name": "apartmentId",
          "type": "uint256"
        }
      ],
      "name": "tenantBooked",
      "outputs": [
        {
          "internalType": "bool",
          "name": "",
          "type": "bool"
        }
      ],
      "stateMutability": "view",
      "type": "function"
    },
    {
      "inputs": [
        {
          "internalType": "address payable",
          "name": "newOwner",
          "type": "address"
        }
      ],
      "name": "transferOwnership",
      "outputs": [],
      "stateMutability": "nonpayable",
      "type": "function"
    },
    {
      "inputs": [
        {
          "internalType": "uint256",
          "name": "id",
          "type": "uint256"
        },
        {
          "internalType": "string",
          "name": "name",
          "type": "string"
        },
        {
          "internalType": "string",
          "name": "description",
          "type": "string"
        },
        {
          "internalType": "string",
          "name": "location",
          "type": "string"
        },
        {
          "internalType": "string[]",
          "name": "imageHashes",
          "type": "string[]"
        },
        {
          "internalType": "uint256",
          "name": "rooms",
          "type": "uint256"
        },
        {
          "internalType": "uint256",
          "name": "price",
          "type": "uint256"
        },
        {
          "internalType": "uint256",
          "name": "taxPercent",
          "type": "uint256"
        },
        {
          "internalType": "uint256",
          "name": "securityFee",
          "type": "uint256"
        }
      ],
      "name": "updateApartment",
      "outputs": [],
      "stateMutability": "nonpayable",
      "type": "function"
    },
    {
      "inputs": [
        {
          "internalType": "uint256",
          "name": "_maxImages",
          "type": "uint256"
        }
      ],
      "name": "updateMaxImages",
      "outputs": [],
      "stateMutability": "nonpayable",
      "type": "function"
    },
    {
      "inputs": [
        {
          "internalType": "uint256",
          "name": "_pageSize",
          "type": "uint256"
        }
      ],
      "name": "updatePageSize",
      "outputs": [],
      "stateMutability": "nonpayable",
      "type": "function"
    }
  ],
  "bytecode": "0x608060405234801561001057600080fd5b506141d3806100206000396000f3fe6080604052600436106101665760003560e01c806367626e5d116100d1578063ace6d4dd1161008a578063ea92e84311610064578063ea92e8431461054d578063ee36c2b514610578578063f2fde38b146105b5578063f8c8765e146105de57610166565b8063ace6d4dd146104c9578063db2f80b7146104f4578063df6e02221461053157610166565b806367626e5d146103a957806372bdcc7e146103d257806378419f61146103fb5780638271e3ff146104245780639d4a22551461044f5780639f31a2be1461048c57610166565b8063309de08e11610123578063309de08e1461029d578063339cbec2146102c6578063455b3070146102f1578063544da21d1461032e57806355c3fbfb146103575780635bb0c5d61461038057610166565b8063010b58ee1461016b5780630bb9ce3314610194578063164f82f8146101d1578063243d681e146101fa57806324d7806c146102235780632c7b265014610260575b600080fd5b34801561017757600080fd5b50610192600480360381019061018d9190611f97565b6105fa565b005b3480156101a057600080fd5b506101bb60048036038101906101b69190611fd7565b61071c565b6040516101c891906120f4565b60405180910390f35b3480156101dd57600080fd5b506101f860048036038101906101f39190611fd7565b6107c4565b005b34801561020657600080fd5b50610221600480360381019061021c9190611fd7565b610952565b005b34801561022f57600080fd5b5061024a60048036038101906102459190612142565b610ae0565b604051610257919061218a565b60405180910390f35b34801561026c57600080fd5b50610287600480360381019061028291906121a5565b610ba8565b6040516102949190612353565b60405180910390f35b3480156102a957600080fd5b506102c460048036038101906102bf9190611f97565b610c56565b005b3480156102d257600080fd5b506102db610de7565b6040516102e891906123d4565b60405180910390f35b3480156102fd57600080fd5b5061031860048036038101906103139190611f97565b610e0d565b604051610325919061247d565b60405180910390f35b34801561033a57600080fd5b50610355600480360381019061035091906126c4565b610eb9565b005b34801561036357600080fd5b5061037e60048036038101906103799190611fd7565b610fec565b005b34801561038c57600080fd5b506103a760048036038101906103a291906127fe565b611107565b005b3480156103b557600080fd5b506103d060048036038101906103cb9190611f97565b6112dd565b005b3480156103de57600080fd5b506103f960048036038101906103f4919061285a565b6113ff565b005b34801561040757600080fd5b50610422600480360381019061041d9190611f97565b611548565b005b34801561043057600080fd5b5061043961166a565b60405161044691906129af565b60405180910390f35b34801561045b57600080fd5b5061047660048036038101906104719190611fd7565b611707565b6040516104839190612b81565b60405180910390f35b34801561049857600080fd5b506104b360048036038101906104ae9190611fd7565b6117b1565b6040516104c0919061218a565b60405180910390f35b3480156104d557600080fd5b506104de611855565b6040516104eb9190612bc4565b60405180910390f35b34801561050057600080fd5b5061051b60048036038101906105169190611fd7565b611879565b6040516105289190612c8e565b60405180910390f35b61054b60048036038101906105469190612d73565b611921565b005b34801561055957600080fd5b50610562611a5b565b60405161056f9190612df0565b60405180910390f35b34801561058457600080fd5b5061059f600480360381019061059a9190611f97565b611a81565b6040516105ac91906130bd565b60405180910390f35b3480156105c157600080fd5b506105dc60048036038101906105d7919061311d565b611bda565b005b6105f860048036038101906105f3919061314a565b611d68565b005b60008054906101000a900473ffffffffffffffffffffffffffffffffffffffff1673ffffffffffffffffffffffffffffffffffffffff1663010b58ee83836040518363ffffffff1660e01b81526004016106559291906131c0565b600060405180830381600087803b15801561066f57600080fd5b505af1158015610683573d6000803e3d6000fd5b50505050600260009054906101000a900473ffffffffffffffffffffffffffffffffffffffff1673ffffffffffffffffffffffffffffffffffffffff1663842730278383336040518463ffffffff1660e01b81526004016106e6939291906131f8565b600060405180830381600087803b15801561070057600080fd5b505af1158015610714573d6000803e3d6000fd5b505050505050565b606060008054906101000a900473ffffffffffffffffffffffffffffffffffffffff1673ffffffffffffffffffffffffffffffffffffffff16630bb9ce33836040518263ffffffff1660e01b8152600401610777919061322f565b600060405180830381865afa158015610794573d6000803e3d6000fd5b505050506040513d6000823e3d601f19601f820116820180604052508101906107bd9190613322565b9050919050565b600360009054906101000a900473ffffffffffffffffffffffffffffffffffffffff1673ffffffffffffffffffffffffffffffffffffffff16638da5cb5b6040518163ffffffff1660e01b8152600401602060405180830381865afa158015610831573d6000803e3d6000fd5b505050506040513d601f19601f820116820180604052508101906108559190613380565b73ffffffffffffffffffffffffffffffffffffffff163373ffffffffffffffffffffffffffffffffffffffff16146108c2576040517f08c379a00000000000000000000000000000000000000000000000000000000081526004016108b99061340a565b60405180910390fd5b600360009054906101000a900473ffffffffffffffffffffffffffffffffffffffff1673ffffffffffffffffffffffffffffffffffffffff1663164f82f8826040518263ffffffff1660e01b815260040161091d919061322f565b600060405180830381600087803b15801561093757600080fd5b505af115801561094b573d6000803e3d6000fd5b5050505050565b600360009054906101000a900473ffffffffffffffffffffffffffffffffffffffff1673ffffffffffffffffffffffffffffffffffffffff16638da5cb5b6040518163ffffffff1660e01b8152600401602060405180830381865afa1580156109bf573d6000803e3d6000fd5b505050506040513d601f19601f820116820180604052508101906109e39190613380565b73ffffffffffffffffffffffffffffffffffffffff163373ffffffffffffffffffffffffffffffffffffffff1614610a50576040517f08c379a0000000000000000000000000000000000000000000000000000000008152600401610a479061340a565b60405180910390fd5b600360009054906101000a900473ffffffffffffffffffffffffffffffffffffffff1673ffffffffffffffffffffffffffffffffffffffff1663243d681e826040518263ffffffff1660e01b8152600401610aab919061322f565b600060405180830381600087803b158015610ac557600080fd5b505af1158015610ad9573d6000803e3d6000fd5b5050505050565b6000600360009054906101000a900473ffffffffffffffffffffffffffffffffffffffff1673ffffffffffffffffffffffffffffffffffffffff16638da5cb5b6040518163ffffffff1660e01b8152600401602060405180830381865afa158015610b4f573d6000803e3d6000fd5b505050506040513d601f19601f82011682018060405250810190610b739190613380565b73ffffffffffffffffffffffffffffffffffffffff168273ffffffffffffffffffffffffffffffffffffffff16149050919050565b606060008054906101000a900473ffffffffffffffffffffffffffffffffffffffff1673ffffffffffffffffffffffffffffffffffffffff16632c7b26508585856040518463ffffffff1660e01b8152600401610c079392919061342a565b600060405180830381865afa158015610c24573d6000803e3d6000fd5b505050506040513d6000823e3d601f19601f82011682018060405250810190610c4d9190613623565b90509392505050565b600360009054906101000a900473ffffffffffffffffffffffffffffffffffffffff1673ffffffffffffffffffffffffffffffffffffffff16638da5cb5b6040518163ffffffff1660e01b8152600401602060405180830381865afa158015610cc3573d6000803e3d6000fd5b505050506040513d601f19601f82011682018060405250810190610ce79190613380565b73ffffffffffffffffffffffffffffffffffffffff163373ffffffffffffffffffffffffffffffffffffffff1614610d54576040517f08c379a0000000000000000000000000000000000000000000000000000000008152600401610d4b9061340a565b60405180910390fd5b600360009054906101000a900473ffffffffffffffffffffffffffffffffffffffff1673ffffffffffffffffffffffffffffffffffffffff1663309de08e83836040518363ffffffff1660e01b8152600401610db19291906131c0565b600060405180830381600087803b158015610dcb57600080fd5b505af1158015610ddf573d6000803e3d6000fd5b505050505050565b600160009054906101000a900473ffffffffffffffffffffffffffffffffffffffff1681565b610e15611edc565b60008054906101000a900473ffffffffffffffffffffffffffffffffffffffff1673ffffffffffffffffffffffffffffffffffffffff1663455b307084846040518363ffffffff1660e01b8152600401610e709291906131c0565b60e060405180830381865afa158015610e8d573d6000803e3d6000fd5b505050506040513d601f19601f82011682018060405250810190610eb1919061366c565b905092915050565b60008054906101000a900473ffffffffffffffffffffffffffffffffffffffff1673ffffffffffffffffffffffffffffffffffffffff1663544da21d8a8a8a8a8a8a8a8a8a6040518a63ffffffff1660e01b8152600401610f2299989796959493929190613758565b600060405180830381600087803b158015610f3c57600080fd5b505af1158015610f50573d6000803e3d6000fd5b50505050600260009054906101000a900473ffffffffffffffffffffffffffffffffffffffff1673ffffffffffffffffffffffffffffffffffffffff166395039cf78a6040518263ffffffff1660e01b8152600401610faf919061322f565b600060405180830381600087803b158015610fc957600080fd5b505af1158015610fdd573d6000803e3d6000fd5b50505050505050505050505050565b60008054906101000a900473ffffffffffffffffffffffffffffffffffffffff1673ffffffffffffffffffffffffffffffffffffffff166355c3fbfb826040518263ffffffff1660e01b8152600401611045919061322f565b600060405180830381600087803b15801561105f57600080fd5b505af1158015611073573d6000803e3d6000fd5b50505050600260009054906101000a900473ffffffffffffffffffffffffffffffffffffffff1673ffffffffffffffffffffffffffffffffffffffff1663a12a6676826040518263ffffffff1660e01b81526004016110d2919061322f565b600060405180830381600087803b1580156110ec57600080fd5b505af1158015611100573d6000803e3d6000fd5b5050505050565b600160009054906101000a900473ffffffffffffffffffffffffffffffffffffffff1673ffffffffffffffffffffffffffffffffffffffff16635bb0c5d683836040518363ffffffff1660e01b8152600401611164929190613801565b600060405180830381600087803b15801561117e57600080fd5b505af1158015611192573d6000803e3d6000fd5b50505050600060018060009054906101000a900473ffffffffffffffffffffffffffffffffffffffff1673ffffffffffffffffffffffffffffffffffffffff16639d4a2255856040518263ffffffff1660e01b81526004016111f4919061322f565b600060405180830381865afa158015611211573d6000803e3d6000fd5b505050506040513d6000823e3d601f19601f8201168201806040525081019061123a9190613a2a565b516112459190613aa2565b9050600260009054906101000a900473ffffffffffffffffffffffffffffffffffffffff1673ffffffffffffffffffffffffffffffffffffffff16633d39818c8285336040518463ffffffff1660e01b81526004016112a6939291906131f8565b600060405180830381600087803b1580156112c057600080fd5b505af11580156112d4573d6000803e3d6000fd5b50505050505050565b60008054906101000a900473ffffffffffffffffffffffffffffffffffffffff1673ffffffffffffffffffffffffffffffffffffffff166367626e5d83836040518363ffffffff1660e01b81526004016113389291906131c0565b600060405180830381600087803b15801561135257600080fd5b505af1158015611366573d6000803e3d6000fd5b50505050600260009054906101000a900473ffffffffffffffffffffffffffffffffffffffff1673ffffffffffffffffffffffffffffffffffffffff1663f1349c038383336040518463ffffffff1660e01b81526004016113c9939291906131f8565b600060405180830381600087803b1580156113e357600080fd5b505af11580156113f7573d6000803e3d6000fd5b505050505050565b60008060009054906101000a900473ffffffffffffffffffffffffffffffffffffffff1673ffffffffffffffffffffffffffffffffffffffff166372bdcc7e8a8a8a8a8a8a8a8a6040518963ffffffff1660e01b8152600401611469989796959493929190613ad6565b6020604051808303816000875af1158015611488573d6000803e3d6000fd5b505050506040513d601f19601f820116820180604052508101906114ac9190613b70565b9050600260009054906101000a900473ffffffffffffffffffffffffffffffffffffffff1673ffffffffffffffffffffffffffffffffffffffff1663d9961c2482336040518363ffffffff1660e01b815260040161150b929190613b9d565b600060405180830381600087803b15801561152557600080fd5b505af1158015611539573d6000803e3d6000fd5b50505050505050505050505050565b60008054906101000a900473ffffffffffffffffffffffffffffffffffffffff1673ffffffffffffffffffffffffffffffffffffffff166378419f6183836040518363ffffffff1660e01b81526004016115a39291906131c0565b600060405180830381600087803b1580156115bd57600080fd5b505af11580156115d1573d6000803e3d6000fd5b50505050600260009054906101000a900473ffffffffffffffffffffffffffffffffffffffff1673ffffffffffffffffffffffffffffffffffffffff16636c601dcc8284336040518463ffffffff1660e01b8152600401611634939291906131f8565b600060405180830381600087803b15801561164e57600080fd5b505af1158015611662573d6000803e3d6000fd5b505050505050565b611672611f33565b600360009054906101000a900473ffffffffffffffffffffffffffffffffffffffff1673ffffffffffffffffffffffffffffffffffffffff16638271e3ff6040518163ffffffff1660e01b81526004016040805180830381865afa1580156116de573d6000803e3d6000fd5b505050506040513d601f19601f820116820180604052508101906117029190613c16565b905090565b6060600160009054906101000a900473ffffffffffffffffffffffffffffffffffffffff1673ffffffffffffffffffffffffffffffffffffffff16639d4a2255836040518263ffffffff1660e01b8152600401611764919061322f565b600060405180830381865afa158015611781573d6000803e3d6000fd5b505050506040513d6000823e3d601f19601f820116820180604052508101906117aa9190613a2a565b9050919050565b60008060009054906101000a900473ffffffffffffffffffffffffffffffffffffffff1673ffffffffffffffffffffffffffffffffffffffff16639f31a2be836040518263ffffffff1660e01b815260040161180d919061322f565b602060405180830381865afa15801561182a573d6000803e3d6000fd5b505050506040513d601f19601f8201168201806040525081019061184e9190613c43565b9050919050565b60008054906101000a900473ffffffffffffffffffffffffffffffffffffffff1681565b606060008054906101000a900473ffffffffffffffffffffffffffffffffffffffff1673ffffffffffffffffffffffffffffffffffffffff1663db2f80b7836040518263ffffffff1660e01b81526004016118d4919061322f565b600060405180830381865afa1580156118f1573d6000803e3d6000fd5b505050506040513d6000823e3d601f19601f8201168201806040525081019061191a9190613d07565b9050919050565b60008060009054906101000a900473ffffffffffffffffffffffffffffffffffffffff1673ffffffffffffffffffffffffffffffffffffffff1663df6e02223485856040518463ffffffff1660e01b8152600401611980929190613d50565b60206040518083038185885af115801561199e573d6000803e3d6000fd5b50505050506040513d601f19601f820116820180604052508101906119c39190613b70565b9050600260009054906101000a900473ffffffffffffffffffffffffffffffffffffffff1673ffffffffffffffffffffffffffffffffffffffff1663366197748285336040518463ffffffff1660e01b8152600401611a24939291906131f8565b600060405180830381600087803b158015611a3e57600080fd5b505af1158015611a52573d6000803e3d6000fd5b50505050505050565b600260009054906101000a900473ffffffffffffffffffffffffffffffffffffffff1681565b60606000600360009054906101000a900473ffffffffffffffffffffffffffffffffffffffff1673ffffffffffffffffffffffffffffffffffffffff16638271e3ff6040518163ffffffff1660e01b81526004016040805180830381865afa158015611af1573d6000803e3d6000fd5b505050506040513d601f19601f82011682018060405250810190611b159190613c16565b600001519050600081841115611b2b5781611b2d565b835b905060008054906101000a900473ffffffffffffffffffffffffffffffffffffffff1673ffffffffffffffffffffffffffffffffffffffff1663ee36c2b586836040518363ffffffff1660e01b8152600401611b8a9291906131c0565b600060405180830381865afa158015611ba7573d6000803e3d6000fd5b505050506040513d6000823e3d601f19601f82011682018060405250810190611bd091906140be565b9250505092915050565b600360009054906101000a900473ffffffffffffffffffffffffffffffffffffffff1673ffffffffffffffffffffffffffffffffffffffff16638da5cb5b6040518163ffffffff1660e01b8152600401602060405180830381865afa158015611c47573d6000803e3d6000fd5b505050506040513d601f19601f82011682018060405250810190611c6b9190613380565b73ffffffffffffffffffffffffffffffffffffffff163373ffffffffffffffffffffffffffffffffffffffff1614611cd8576040517f08c379a0000000000000000000000000000000000000000000000000000000008152600401611ccf9061340a565b60405180910390fd5b600360009054906101000a900473ffffffffffffffffffffffffffffffffffffffff1673ffffffffffffffffffffffffffffffffffffffff1663f2fde38b826040518263ffffffff1660e01b8152600401611d339190614116565b600060405180830381600087803b158015611d4d57600080fd5b505af1158015611d61573d6000803e3d6000fd5b5050505050565b600360149054906101000a900460ff1615611db8576040517f08c379a0000000000000000000000000000000000000000000000000000000008152600401611daf9061417d565b60405180910390fd5b836000806101000a81548173ffffffffffffffffffffffffffffffffffffffff021916908373ffffffffffffffffffffffffffffffffffffffff16021790555082600160006101000a81548173ffffffffffffffffffffffffffffffffffffffff021916908373ffffffffffffffffffffffffffffffffffffffff16021790555081600260006101000a81548173ffffffffffffffffffffffffffffffffffffffff021916908373ffffffffffffffffffffffffffffffffffffffff16021790555080600360006101000a81548173ffffffffffffffffffffffffffffffffffffffff021916908373ffffffffffffffffffffffffffffffffffffffff1602179055506001600360146101000a81548160ff02191690831515021790555050505050565b6040518060e001604052806000815260200160008152602001600073ffffffffffffffffffffffffffffffffffffffff16815260200160008152602001600081526020016000151581526020016000151581525090565b604051806040016040528060008152602001600081525090565b6000604051905090565b600080fd5b600080fd5b6000819050919050565b611f7481611f61565b8114611f7f57600080fd5b50565b600081359050611f9181611f6b565b92915050565b60008060408385031215611fae57611fad611f57565b5b6000611fbc85828601611f82565b9250506020611fcd85828601611f82565b9150509250929050565b600060208284031215611fed57611fec611f57565b5b6000611ffb84828501611f82565b91505092915050565b600081519050919050565b600082825260208201905092915050565b6000819050602082019050919050565b600073ffffffffffffffffffffffffffffffffffffffff82169050919050565b600061205b82612030565b9050919050565b61206b81612050565b82525050565b600061207d8383612062565b60208301905092915050565b6000602082019050919050565b60006120a182612004565b6120ab818561200f565b93506120b683612020565b8060005b838110156120e75781516120ce8882612071565b97506120d983612089565b9250506001810190506120ba565b5085935050505092915050565b6000602082019050818103600083015261210e8184612096565b905092915050565b61211f81612050565b811461212a57600080fd5b50565b60008135905061213c81612116565b92915050565b60006020828403121561215857612157611f57565b5b60006121668482850161212d565b91505092915050565b60008115159050919050565b6121848161216f565b82525050565b600060208201905061219f600083018461217b565b92915050565b6000806000606084860312156121be576121bd611f57565b5b60006121cc86828701611f82565b93505060206121dd86828701611f82565b92505060406121ee86828701611f82565b9150509250925092565b600081519050919050565b600082825260208201905092915050565b6000819050602082019050919050565b61222d81611f61565b82525050565b61223c8161216f565b82525050565b60e0820160008201516122586000850182612224565b50602082015161226b6020850182612224565b50604082015161227e6040850182612062565b5060608201516122916060850182612224565b5060808201516122a46080850182612224565b5060a08201516122b760a0850182612233565b5060c08201516122ca60c0850182612233565b50505050565b60006122dc8383612242565b60e08301905092915050565b6000602082019050919050565b6000612300826121f8565b61230a8185612203565b935061231583612214565b8060005b8381101561234657815161232d88826122d0565b9750612338836122e8565b925050600181019050612319565b5085935050505092915050565b6000602082019050818103600083015261236d81846122f5565b905092915050565b6000819050919050565b600061239a61239561239084612030565b612375565b612030565b9050919050565b60006123ac8261237f565b9050919050565b60006123be826123a1565b9050919050565b6123ce816123b3565b82525050565b60006020820190506123e960008301846123c5565b92915050565b60e0820160008201516124056000850182612224565b5060208201516124186020850182612224565b50604082015161242b6040850182612062565b50606082015161243e6060850182612224565b5060808201516124516080850182612224565b5060a082015161246460a0850182612233565b5060c082015161247760c0850182612233565b50505050565b600060e08201905061249260008301846123ef565b92915050565b600080fd5b600080fd5b6000601f19601f8301169050919050565b7f4e487b7100000000000000000000000000000000000000000000000000000000600052604160045260246000fd5b6124eb826124a2565b810181811067ffffffffffffffff8211171561250a576125096124b3565b5b80604052505050565b600061251d611f4d565b905061252982826124e2565b919050565b600067ffffffffffffffff821115612549576125486124b3565b5b612552826124a2565b9050602081019050919050565b82818337600083830152505050565b600061258161257c8461252e565b612513565b90508281526020810184848401111561259d5761259c61249d565b5b6125a884828561255f565b509392505050565b600082601f8301126125c5576125c4612498565b5b81356125d584826020860161256e565b91505092915050565b600067ffffffffffffffff8211156125f9576125f86124b3565b5b602082029050602081019050919050565b600080fd5b600061262261261d846125de565b612513565b905080838252602082019050602084028301858111156126455761264461260a565b5b835b8181101561268c57803567ffffffffffffffff81111561266a57612669612498565b5b80860161267789826125b0565b85526020850194505050602081019050612647565b5050509392505050565b600082601f8301126126ab576126aa612498565b5b81356126bb84826020860161260f565b91505092915050565b60008060008060008060008060006101208a8c0312156126e7576126e6611f57565b5b60006126f58c828d01611f82565b99505060208a013567ffffffffffffffff81111561271657612715611f5c565b5b6127228c828d016125b0565b98505060408a013567ffffffffffffffff81111561274357612742611f5c565b5b61274f8c828d016125b0565b97505060608a013567ffffffffffffffff8111156127705761276f611f5c565b5b61277c8c828d016125b0565b96505060808a013567ffffffffffffffff81111561279d5761279c611f5c565b5b6127a98c828d01612696565b95505060a06127ba8c828d01611f82565b94505060c06127cb8c828d01611f82565b93505060e06127dc8c828d01611f82565b9250506101006127ee8c828d01611f82565b9150509295985092959850929598565b6000806040838503121561281557612814611f57565b5b600061282385828601611f82565b925050602083013567ffffffffffffffff81111561284457612843611f5c565b5b612850858286016125b0565b9150509250929050565b600080600080600080600080610100898b03121561287b5761287a611f57565b5b600089013567ffffffffffffffff81111561289957612898611f5c565b5b6128a58b828c016125b0565b985050602089013567ffffffffffffffff8111156128c6576128c5611f5c565b5b6128d28b828c016125b0565b975050604089013567ffffffffffffffff8111156128f3576128f2611f5c565b5b6128ff8b828c016125b0565b965050606089013567ffffffffffffffff8111156129205761291f611f5c565b5b61292c8b828c01612696565b955050608061293d8b828c01611f82565b94505060a061294e8b828c01611f82565b93505060c061295f8b828c01611f82565b92505060e06129708b828c01611f82565b9150509295985092959890939650565b6040820160008201516129966000850182612224565b5060208201516129a96020850182612224565b50505050565b60006040820190506129c46000830184612980565b92915050565b600081519050919050565b600082825260208201905092915050565b6000819050602082019050919050565b600081519050919050565b600082825260208201905092915050565b60005b83811015612a30578082015181840152602081019050612a15565b60008484015250505050565b6000612a47826129f6565b612a518185612a01565b9350612a61818560208601612a12565b612a6a816124a2565b840191505092915050565b600060a083016000830151612a8d6000860182612224565b506020830151612aa06020860182612224565b5060408301518482036040860152612ab88282612a3c565b9150506060830151612acd6060860182612224565b506080830151612ae06080860182612062565b508091505092915050565b6000612af78383612a75565b905092915050565b6000602082019050919050565b6000612b17826129ca565b612b2181856129d5565b935083602082028501612b33856129e6565b8060005b85811015612b6f5784840389528151612b508582612aeb565b9450612b5b83612aff565b925060208a01995050600181019050612b37565b50829750879550505050505092915050565b60006020820190508181036000830152612b9b8184612b0c565b905092915050565b6000612bae826123a1565b9050919050565b612bbe81612ba3565b82525050565b6000602082019050612bd96000830184612bb5565b92915050565b600081519050919050565b600082825260208201905092915050565b6000819050602082019050919050565b6000612c178383612224565b60208301905092915050565b6000602082019050919050565b6000612c3b82612bdf565b612c458185612bea565b9350612c5083612bfb565b8060005b83811015612c81578151612c688882612c0b565b9750612c7383612c23565b925050600181019050612c54565b5085935050505092915050565b60006020820190508181036000830152612ca88184612c30565b905092915050565b600067ffffffffffffffff821115612ccb57612cca6124b3565b5b602082029050602081019050919050565b6000612cef612cea84612cb0565b612513565b90508083825260208201905060208402830185811115612d1257612d1161260a565b5b835b81811015612d3b5780612d278882611f82565b845260208401935050602081019050612d14565b5050509392505050565b600082601f830112612d5a57612d59612498565b5b8135612d6a848260208601612cdc565b91505092915050565b60008060408385031215612d8a57612d89611f57565b5b6000612d9885828601611f82565b925050602083013567ffffffffffffffff811115612db957612db8611f5c565b5b612dc585828601612d45565b9150509250929050565b6000612dda826123a1565b9050919050565b612dea81612dcf565b82525050565b6000602082019050612e056000830184612de1565b92915050565b600081519050919050565b600082825260208201905092915050565b6000819050602082019050919050565b600081519050919050565b600082825260208201905092915050565b6000819050602082019050919050565b6000612e6f8383612a3c565b905092915050565b6000602082019050919050565b6000612e8f82612e37565b612e998185612e42565b935083602082028501612eab85612e53565b8060005b85811015612ee75784840389528151612ec88582612e63565b9450612ed383612e77565b925060208a01995050600181019050612eaf565b50829750879550505050505092915050565b60006101a083016000830151612f126000860182612224565b5060208301518482036020860152612f2a8282612a3c565b91505060408301518482036040860152612f448282612a3c565b91505060608301518482036060860152612f5e8282612a3c565b91505060808301518482036080860152612f788282612e84565b91505060a0830151612f8d60a0860182612224565b5060c0830151612fa060c0860182612224565b5060e0830151612fb360e0860182612224565b50610100830151612fc8610100860182612224565b50610120830151612fdd610120860182612062565b50610140830151612ff2610140860182612233565b50610160830151613007610160860182612233565b5061018083015161301c610180860182612224565b508091505092915050565b60006130338383612ef9565b905092915050565b6000602082019050919050565b600061305382612e0b565b61305d8185612e16565b93508360208202850161306f85612e27565b8060005b858110156130ab578484038952815161308c8582613027565b94506130978361303b565b925060208a01995050600181019050613073565b50829750879550505050505092915050565b600060208201905081810360008301526130d78184613048565b905092915050565b60006130ea82612030565b9050919050565b6130fa816130df565b811461310557600080fd5b50565b600081359050613117816130f1565b92915050565b60006020828403121561313357613132611f57565b5b600061314184828501613108565b91505092915050565b6000806000806080858703121561316457613163611f57565b5b60006131728782880161212d565b94505060206131838782880161212d565b93505060406131948782880161212d565b92505060606131a58782880161212d565b91505092959194509250565b6131ba81611f61565b82525050565b60006040820190506131d560008301856131b1565b6131e260208301846131b1565b9392505050565b6131f281612050565b82525050565b600060608201905061320d60008301866131b1565b61321a60208301856131b1565b61322760408301846131e9565b949350505050565b600060208201905061324460008301846131b1565b92915050565b600067ffffffffffffffff821115613265576132646124b3565b5b602082029050602081019050919050565b60008151905061328581612116565b92915050565b600061329e6132998461324a565b612513565b905080838252602082019050602084028301858111156132c1576132c061260a565b5b835b818110156132ea57806132d68882613276565b8452602084019350506020810190506132c3565b5050509392505050565b600082601f83011261330957613308612498565b5b815161331984826020860161328b565b91505092915050565b60006020828403121561333857613337611f57565b5b600082015167ffffffffffffffff81111561335657613355611f5c565b5b613362848285016132f4565b91505092915050565b60008151905061337a816130f1565b92915050565b60006020828403121561339657613395611f57565b5b60006133a48482850161336b565b91505092915050565b600082825260208201905092915050565b7f43616c6c6572206973206e6f7420746865206f776e6572000000000000000000600082015250565b60006133f46017836133ad565b91506133ff826133be565b602082019050919050565b60006020820190508181036000830152613423816133e7565b9050919050565b600060608201905061343f60008301866131b1565b61344c60208301856131b1565b61345960408301846131b1565b949350505050565b600067ffffffffffffffff82111561347c5761347b6124b3565b5b602082029050602081019050919050565b600080fd5b600080fd5b6000815190506134a681611f6b565b92915050565b6134b58161216f565b81146134c057600080fd5b50565b6000815190506134d2816134ac565b92915050565b600060e082840312156134ee576134ed61348d565b5b6134f860e0612513565b9050600061350884828501613497565b600083015250602061351c84828501613497565b602083015250604061353084828501613276565b604083015250606061354484828501613497565b606083015250608061355884828501613497565b60808301525060a061356c848285016134c3565b60a08301525060c0613580848285016134c3565b60c08301525092915050565b600061359f61359a84613461565b612513565b90508083825260208201905060e084028301858111156135c2576135c161260a565b5b835b818110156135eb57806135d788826134d8565b84526020840193505060e0810190506135c4565b5050509392505050565b600082601f83011261360a57613609612498565b5b815161361a84826020860161358c565b91505092915050565b60006020828403121561363957613638611f57565b5b600082015167ffffffffffffffff81111561365757613656611f5c565b5b613663848285016135f5565b91505092915050565b600060e0828403121561368257613681611f57565b5b6000613690848285016134d8565b91505092915050565b60006136a4826129f6565b6136ae81856133ad565b93506136be818560208601612a12565b6136c7816124a2565b840191505092915050565b600082825260208201905092915050565b60006136ee82612e37565b6136f881856136d2565b93508360208202850161370a85612e53565b8060005b8581101561374657848403895281516137278582612e63565b945061373283612e77565b925060208a0199505060018101905061370e565b50829750879550505050505092915050565b60006101208201905061376e600083018c6131b1565b8181036020830152613780818b613699565b90508181036040830152613794818a613699565b905081810360608301526137a88189613699565b905081810360808301526137bc81886136e3565b90506137cb60a08301876131b1565b6137d860c08301866131b1565b6137e560e08301856131b1565b6137f36101008301846131b1565b9a9950505050505050505050565b600060408201905061381660008301856131b1565b81810360208301526138288184613699565b90509392505050565b600067ffffffffffffffff82111561384c5761384b6124b3565b5b602082029050602081019050919050565b600061387061386b8461252e565b612513565b90508281526020810184848401111561388c5761388b61249d565b5b613897848285612a12565b509392505050565b600082601f8301126138b4576138b3612498565b5b81516138c484826020860161385d565b91505092915050565b600060a082840312156138e3576138e261348d565b5b6138ed60a0612513565b905060006138fd84828501613497565b600083015250602061391184828501613497565b602083015250604082015167ffffffffffffffff81111561393557613934613492565b5b6139418482850161389f565b604083015250606061395584828501613497565b606083015250608061396984828501613276565b60808301525092915050565b600061398861398384613831565b612513565b905080838252602082019050602084028301858111156139ab576139aa61260a565b5b835b818110156139f257805167ffffffffffffffff8111156139d0576139cf612498565b5b8086016139dd89826138cd565b855260208501945050506020810190506139ad565b5050509392505050565b600082601f830112613a1157613a10612498565b5b8151613a21848260208601613975565b91505092915050565b600060208284031215613a4057613a3f611f57565b5b600082015167ffffffffffffffff811115613a5e57613a5d611f5c565b5b613a6a848285016139fc565b91505092915050565b7f4e487b7100000000000000000000000000000000000000000000000000000000600052601160045260246000fd5b6000613aad82611f61565b9150613ab883611f61565b9250828203905081811115613ad057613acf613a73565b5b92915050565b6000610100820190508181036000830152613af1818b613699565b90508181036020830152613b05818a613699565b90508181036040830152613b198189613699565b90508181036060830152613b2d81886136e3565b9050613b3c60808301876131b1565b613b4960a08301866131b1565b613b5660c08301856131b1565b613b6360e08301846131b1565b9998505050505050505050565b600060208284031215613b8657613b85611f57565b5b6000613b9484828501613497565b91505092915050565b6000604082019050613bb260008301856131b1565b613bbf60208301846131e9565b9392505050565b600060408284031215613bdc57613bdb61348d565b5b613be66040612513565b90506000613bf684828501613497565b6000830152506020613c0a84828501613497565b60208301525092915050565b600060408284031215613c2c57613c2b611f57565b5b6000613c3a84828501613bc6565b91505092915050565b600060208284031215613c5957613c58611f57565b5b6000613c67848285016134c3565b91505092915050565b6000613c83613c7e84612cb0565b612513565b90508083825260208201905060208402830185811115613ca657613ca561260a565b5b835b81811015613ccf5780613cbb8882613497565b845260208401935050602081019050613ca8565b5050509392505050565b600082601f830112613cee57613ced612498565b5b8151613cfe848260208601613c70565b91505092915050565b600060208284031215613d1d57613d1c611f57565b5b600082015167ffffffffffffffff811115613d3b57613d3a611f5c565b5b613d4784828501613cd9565b91505092915050565b6000604082019050613d6560008301856131b1565b8181036020830152613d778184612c30565b90509392505050565b600067ffffffffffffffff821115613d9b57613d9a6124b3565b5b602082029050602081019050919050565b6000613dbf613dba846125de565b612513565b90508083825260208201905060208402830185811115613de257613de161260a565b5b835b81811015613e2957805167ffffffffffffffff811115613e0757613e06612498565b5b808601613e14898261389f565b85526020850194505050602081019050613de4565b5050509392505050565b600082601f830112613e4857613e47612498565b5b8151613e58848260208601613dac565b91505092915050565b60006101a08284031215613e7857613e7761348d565b5b613e836101a0612513565b90506000613e9384828501613497565b600083015250602082015167ffffffffffffffff811115613eb757613eb6613492565b5b613ec38482850161389f565b602083015250604082015167ffffffffffffffff811115613ee757613ee6613492565b5b613ef38482850161389f565b604083015250606082015167ffffffffffffffff811115613f1757613f16613492565b5b613f238482850161389f565b606083015250608082015167ffffffffffffffff811115613f4757613f46613492565b5b613f5384828501613e33565b60808301525060a0613f6784828501613497565b60a08301525060c0613f7b84828501613497565b60c08301525060e0613f8f84828501613497565b60e083015250610100613fa484828501613497565b61010083015250610120613fba84828501613276565b61012083015250610140613fd0848285016134c3565b61014083015250610160613fe6848285016134c3565b61016083015250610180613ffc84828501613497565b6101808301525092915050565b600061401c61401784613d80565b612513565b9050808382526020820190506020840283018581111561403f5761403e61260a565b5b835b8181101561408657805167ffffffffffffffff81111561406457614063612498565b5b8086016140718982613e61565b85526020850194505050602081019050614041565b5050509392505050565b600082601f8301126140a5576140a4612498565b5b81516140b5848260208601614009565b91505092915050565b6000602082840312156140d4576140d3611f57565b5b600082015167ffffffffffffffff8111156140f2576140f1611f5c565b5b6140fe84828501614090565b91505092915050565b614110816130df565b82525050565b600060208201905061412b6000830184614107565b92915050565b7f416c726561647920696e697469616c697a656400000000000000000000000000600082015250565b60006141676013836133ad565b915061417282614131565b602082019050919050565b600060208201905081810360008301526141968161415a565b905091905056fea26469706673582212204d393730dab63f6797261291059dbd6be7b604e0ede2ae9eb86397b4c462aadf64736f6c63430008180033",
  "linkReferences": {},
  "deployedLinkReferences": {}
}